{
  "address": "0x5FbDB2315678afecb367f032d93F642f64180aa3",
  "abi": [
    {
      "inputs": [
        {
          "internalType": "string",
          "name": "_tokenName",
          "type": "string"
        },
        {
          "internalType": "string",
          "name": "_tokenSymbol",
          "type": "string"
        },
        {
          "internalType": "uint256",
          "name": "_mintFee",
          "type": "uint256"
        },
        {
          "internalType": "uint256",
          "name": "_maxSupply",
          "type": "uint256"
        },
        {
          "internalType": "uint256",
          "name": "_maxMintAmountPerTx",
          "type": "uint256"
        },
        {
          "internalType": "string",
          "name": "_hiddenMetadataUri",
          "type": "string"
        }
      ],
      "stateMutability": "nonpayable",
      "type": "constructor"
    },
    {
      "anonymous": false,
      "inputs": [
        {
          "indexed": true,
          "internalType": "address",
          "name": "owner",
          "type": "address"
        },
        {
          "indexed": true,
          "internalType": "address",
          "name": "approved",
          "type": "address"
        },
        {
          "indexed": true,
          "internalType": "uint256",
          "name": "tokenId",
          "type": "uint256"
        }
      ],
      "name": "Approval",
      "type": "event"
    },
    {
      "anonymous": false,
      "inputs": [
        {
          "indexed": true,
          "internalType": "address",
          "name": "owner",
          "type": "address"
        },
        {
          "indexed": true,
          "internalType": "address",
          "name": "operator",
          "type": "address"
        },
        {
          "indexed": false,
          "internalType": "bool",
          "name": "approved",
          "type": "bool"
        }
      ],
      "name": "ApprovalForAll",
      "type": "event"
    },
    {
      "anonymous": false,
      "inputs": [
        {
          "indexed": true,
          "internalType": "uint256",
          "name": "requestId",
          "type": "uint256"
        },
        {
          "indexed": false,
          "internalType": "address",
          "name": "requester",
          "type": "address"
        }
      ],
      "name": "NftRequested",
      "type": "event"
    },
    {
      "anonymous": false,
      "inputs": [
        {
          "indexed": true,
          "internalType": "address",
          "name": "previousOwner",
          "type": "address"
        },
        {
          "indexed": true,
          "internalType": "address",
          "name": "newOwner",
          "type": "address"
        }
      ],
      "name": "OwnershipTransferred",
      "type": "event"
    },
    {
      "anonymous": false,
      "inputs": [
        {
          "indexed": true,
          "internalType": "address",
          "name": "from",
          "type": "address"
        },
        {
          "indexed": true,
          "internalType": "address",
          "name": "to",
          "type": "address"
        },
        {
          "indexed": true,
          "internalType": "uint256",
          "name": "tokenId",
          "type": "uint256"
        }
      ],
      "name": "Transfer",
      "type": "event"
    },
    {
      "inputs": [
        {
          "internalType": "address",
          "name": "to",
          "type": "address"
        },
        {
          "internalType": "uint256",
          "name": "tokenId",
          "type": "uint256"
        }
      ],
      "name": "approve",
      "outputs": [],
      "stateMutability": "nonpayable",
      "type": "function"
    },
    {
      "inputs": [
        {
          "internalType": "address",
          "name": "owner",
          "type": "address"
        }
      ],
      "name": "balanceOf",
      "outputs": [
        {
          "internalType": "uint256",
          "name": "",
          "type": "uint256"
        }
      ],
      "stateMutability": "view",
      "type": "function"
    },
    {
      "inputs": [
        {
          "internalType": "uint256",
          "name": "tokenId",
          "type": "uint256"
        }
      ],
      "name": "getApproved",
      "outputs": [
        {
          "internalType": "address",
          "name": "",
          "type": "address"
        }
      ],
      "stateMutability": "view",
      "type": "function"
    },
    {
      "inputs": [],
      "name": "getTokenCounter",
      "outputs": [
        {
          "internalType": "uint256",
          "name": "",
          "type": "uint256"
        }
      ],
      "stateMutability": "view",
      "type": "function"
    },
    {
      "inputs": [],
      "name": "hiddenMetadataUri",
      "outputs": [
        {
          "internalType": "string",
          "name": "",
          "type": "string"
        }
      ],
      "stateMutability": "view",
      "type": "function"
    },
    {
      "inputs": [
        {
          "internalType": "address",
          "name": "owner",
          "type": "address"
        },
        {
          "internalType": "address",
          "name": "operator",
          "type": "address"
        }
      ],
      "name": "isApprovedForAll",
      "outputs": [
        {
          "internalType": "bool",
          "name": "",
          "type": "bool"
        }
      ],
      "stateMutability": "view",
      "type": "function"
    },
    {
      "inputs": [],
      "name": "maxMintAmountPerTx",
      "outputs": [
        {
          "internalType": "uint256",
          "name": "",
          "type": "uint256"
        }
      ],
      "stateMutability": "view",
      "type": "function"
    },
    {
      "inputs": [],
      "name": "maxSupply",
      "outputs": [
        {
          "internalType": "uint256",
          "name": "",
          "type": "uint256"
        }
      ],
      "stateMutability": "view",
      "type": "function"
    },
    {
      "inputs": [],
      "name": "merkleRoot",
      "outputs": [
        {
          "internalType": "bytes32",
          "name": "",
          "type": "bytes32"
        }
      ],
      "stateMutability": "view",
      "type": "function"
    },
    {
      "inputs": [],
      "name": "mintFee",
      "outputs": [
        {
          "internalType": "uint256",
          "name": "",
          "type": "uint256"
        }
      ],
      "stateMutability": "view",
      "type": "function"
    },
    {
      "inputs": [
        {
          "internalType": "uint256",
          "name": "_mintAmount",
          "type": "uint256"
        },
        {
          "internalType": "address",
          "name": "_receiver",
          "type": "address"
        }
      ],
      "name": "mintForAddress",
      "outputs": [],
      "stateMutability": "nonpayable",
      "type": "function"
    },
    {
      "inputs": [
        {
          "internalType": "uint256",
          "name": "_mintAmount",
          "type": "uint256"
        }
      ],
      "name": "mintNft",
      "outputs": [],
      "stateMutability": "payable",
      "type": "function"
    },
    {
      "inputs": [],
      "name": "name",
      "outputs": [
        {
          "internalType": "string",
          "name": "",
          "type": "string"
        }
      ],
      "stateMutability": "view",
      "type": "function"
    },
    {
      "inputs": [],
      "name": "owner",
      "outputs": [
        {
          "internalType": "address",
          "name": "",
          "type": "address"
        }
      ],
      "stateMutability": "view",
      "type": "function"
    },
    {
      "inputs": [
        {
          "internalType": "uint256",
          "name": "tokenId",
          "type": "uint256"
        }
      ],
      "name": "ownerOf",
      "outputs": [
        {
          "internalType": "address",
          "name": "",
          "type": "address"
        }
      ],
      "stateMutability": "view",
      "type": "function"
    },
    {
      "inputs": [],
      "name": "paused",
      "outputs": [
        {
          "internalType": "bool",
          "name": "",
          "type": "bool"
        }
      ],
      "stateMutability": "view",
      "type": "function"
    },
    {
      "inputs": [],
      "name": "renounceOwnership",
      "outputs": [],
      "stateMutability": "nonpayable",
      "type": "function"
    },
    {
      "inputs": [],
      "name": "revealed",
      "outputs": [
        {
          "internalType": "bool",
          "name": "",
          "type": "bool"
        }
      ],
      "stateMutability": "view",
      "type": "function"
    },
    {
      "inputs": [],
      "name": "s_tokenCounter",
      "outputs": [
        {
          "internalType": "uint256",
          "name": "",
          "type": "uint256"
        }
      ],
      "stateMutability": "view",
      "type": "function"
    },
    {
      "inputs": [
        {
          "internalType": "address",
          "name": "from",
          "type": "address"
        },
        {
          "internalType": "address",
          "name": "to",
          "type": "address"
        },
        {
          "internalType": "uint256",
          "name": "tokenId",
          "type": "uint256"
        }
      ],
      "name": "safeTransferFrom",
      "outputs": [],
      "stateMutability": "nonpayable",
      "type": "function"
    },
    {
      "inputs": [
        {
          "internalType": "address",
          "name": "from",
          "type": "address"
        },
        {
          "internalType": "address",
          "name": "to",
          "type": "address"
        },
        {
          "internalType": "uint256",
          "name": "tokenId",
          "type": "uint256"
        },
        {
          "internalType": "bytes",
          "name": "data",
          "type": "bytes"
        }
      ],
      "name": "safeTransferFrom",
      "outputs": [],
      "stateMutability": "nonpayable",
      "type": "function"
    },
    {
      "inputs": [
        {
          "internalType": "address",
          "name": "operator",
          "type": "address"
        },
        {
          "internalType": "bool",
          "name": "approved",
          "type": "bool"
        }
      ],
      "name": "setApprovalForAll",
      "outputs": [],
      "stateMutability": "nonpayable",
      "type": "function"
    },
    {
      "inputs": [
        {
          "internalType": "string",
          "name": "_hiddenMetadataUri",
          "type": "string"
        }
      ],
      "name": "setHiddenMetadataUri",
      "outputs": [],
      "stateMutability": "nonpayable",
      "type": "function"
    },
    {
      "inputs": [
        {
          "internalType": "uint256",
          "name": "_maxMintAmountPerTx",
          "type": "uint256"
        }
      ],
      "name": "setMaxMintAmountPerTx",
      "outputs": [],
      "stateMutability": "nonpayable",
      "type": "function"
    },
    {
      "inputs": [
        {
          "internalType": "bytes32",
          "name": "_merkleRoot",
          "type": "bytes32"
        }
      ],
      "name": "setMerkleRoot",
      "outputs": [],
      "stateMutability": "nonpayable",
      "type": "function"
    },
    {
      "inputs": [
        {
          "internalType": "uint256",
          "name": "_mintFee",
          "type": "uint256"
        }
      ],
      "name": "setMintFee",
      "outputs": [],
      "stateMutability": "nonpayable",
      "type": "function"
    },
    {
      "inputs": [
        {
          "internalType": "bool",
          "name": "_state",
          "type": "bool"
        }
      ],
      "name": "setPaused",
      "outputs": [],
      "stateMutability": "nonpayable",
      "type": "function"
    },
    {
      "inputs": [
        {
          "internalType": "bool",
          "name": "_state",
          "type": "bool"
        }
      ],
      "name": "setPublicMintEnabled",
      "outputs": [],
      "stateMutability": "nonpayable",
      "type": "function"
    },
    {
      "inputs": [
        {
          "internalType": "bool",
          "name": "_state",
          "type": "bool"
        }
      ],
      "name": "setRevealed",
      "outputs": [],
      "stateMutability": "nonpayable",
      "type": "function"
    },
    {
      "inputs": [
        {
          "internalType": "string",
          "name": "_uriPrefix",
          "type": "string"
        }
      ],
      "name": "setUriPrefix",
      "outputs": [],
      "stateMutability": "nonpayable",
      "type": "function"
    },
    {
      "inputs": [
        {
          "internalType": "string",
          "name": "_uriSuffix",
          "type": "string"
        }
      ],
      "name": "setUriSuffix",
      "outputs": [],
      "stateMutability": "nonpayable",
      "type": "function"
    },
    {
      "inputs": [
        {
          "internalType": "bytes4",
          "name": "interfaceId",
          "type": "bytes4"
        }
      ],
      "name": "supportsInterface",
      "outputs": [
        {
          "internalType": "bool",
          "name": "",
          "type": "bool"
        }
      ],
      "stateMutability": "view",
      "type": "function"
    },
    {
      "inputs": [],
      "name": "symbol",
      "outputs": [
        {
          "internalType": "string",
          "name": "",
          "type": "string"
        }
      ],
      "stateMutability": "view",
      "type": "function"
    },
    {
      "inputs": [
        {
          "internalType": "uint256",
          "name": "_tokenId",
          "type": "uint256"
        }
      ],
      "name": "tokenURI",
      "outputs": [
        {
          "internalType": "string",
          "name": "",
          "type": "string"
        }
      ],
      "stateMutability": "view",
      "type": "function"
    },
    {
      "inputs": [
        {
          "internalType": "address",
          "name": "from",
          "type": "address"
        },
        {
          "internalType": "address",
          "name": "to",
          "type": "address"
        },
        {
          "internalType": "uint256",
          "name": "tokenId",
          "type": "uint256"
        }
      ],
      "name": "transferFrom",
      "outputs": [],
      "stateMutability": "nonpayable",
      "type": "function"
    },
    {
      "inputs": [
        {
          "internalType": "address",
          "name": "newOwner",
          "type": "address"
        }
      ],
      "name": "transferOwnership",
      "outputs": [],
      "stateMutability": "nonpayable",
      "type": "function"
    },
    {
      "inputs": [],
      "name": "uriPrefix",
      "outputs": [
        {
          "internalType": "string",
          "name": "",
          "type": "string"
        }
      ],
      "stateMutability": "view",
      "type": "function"
    },
    {
      "inputs": [],
      "name": "uriSuffix",
      "outputs": [
        {
          "internalType": "string",
          "name": "",
          "type": "string"
        }
      ],
      "stateMutability": "view",
      "type": "function"
    },
    {
      "inputs": [
        {
          "internalType": "address",
          "name": "",
          "type": "address"
        }
      ],
      "name": "whitelistClaimed",
      "outputs": [
        {
          "internalType": "bool",
          "name": "",
          "type": "bool"
        }
      ],
      "stateMutability": "view",
      "type": "function"
    },
    {
      "inputs": [
        {
          "internalType": "uint256",
          "name": "_mintAmount",
          "type": "uint256"
        },
        {
          "internalType": "bytes32[]",
          "name": "_merkleProof",
          "type": "bytes32[]"
        }
      ],
      "name": "whitelistMint",
      "outputs": [],
      "stateMutability": "payable",
      "type": "function"
    },
    {
      "inputs": [],
      "name": "whitelistMintEnabled",
      "outputs": [
        {
          "internalType": "bool",
          "name": "",
          "type": "bool"
        }
      ],
      "stateMutability": "view",
      "type": "function"
    }
  ],
  "transactionHash": "0x2ed536fe1b5d0750d9332a7f9510abd89f5529332e45169c5cc440392a8be5a3",
  "args": [
    "Multi Meta NFT",
    "KMM",
    "90000000000000000",
    400,
    1,
    "ipfs://__CID__/hidden.json"
  ],
  "numDeployments": 1,
  "solcInputHash": "5d7afe2a317239816c83527912febe65",
  "bytecode": "0x608060405260405180602001604052806000815250600890805190602001906200002b92919062000393565b506040518060400160405280600581526020017f2e6a736f6e000000000000000000000000000000000000000000000000000000815250600990805190602001906200007992919062000393565b506001601160006101000a81548160ff0219169083151502179055506000601160016101000a81548160ff0219169083151502179055506000601160026101000a81548160ff021916908315150217905550348015620000d857600080fd5b5060405162004b7738038062004b778339818101604052810190620000fe91906200061b565b858581600090805190602001906200011892919062000393565b5080600190805190602001906200013192919062000393565b5050506200015462000148620001aa60201b60201c565b620001b260201b60201c565b60016007819055506200016d846200027860201b60201c565b82600f819055506001600d819055506200018d826200029260201b60201c565b6200019e81620002ac60201b60201c565b505050505050620007fc565b600033905090565b6000600660009054906101000a900473ffffffffffffffffffffffffffffffffffffffff16905081600660006101000a81548173ffffffffffffffffffffffffffffffffffffffff021916908373ffffffffffffffffffffffffffffffffffffffff1602179055508173ffffffffffffffffffffffffffffffffffffffff168173ffffffffffffffffffffffffffffffffffffffff167f8be0079c531659141344cd1fd0a4f28419497f9722a3daafe3b4186f6b6457e060405160405180910390a35050565b62000288620002d860201b60201c565b80600e8190555050565b620002a2620002d860201b60201c565b8060108190555050565b620002bc620002d860201b60201c565b80600a9080519060200190620002d492919062000393565b5050565b620002e8620001aa60201b60201c565b73ffffffffffffffffffffffffffffffffffffffff166200030e6200036960201b60201c565b73ffffffffffffffffffffffffffffffffffffffff161462000367576040517f08c379a00000000000000000000000000000000000000000000000000000000081526004016200035e9062000775565b60405180910390fd5b565b6000600660009054906101000a900473ffffffffffffffffffffffffffffffffffffffff16905090565b828054620003a190620007c6565b90600052602060002090601f016020900481019282620003c5576000855562000411565b82601f10620003e057805160ff191683800117855562000411565b8280016001018555821562000411579182015b8281111562000410578251825591602001919060010190620003f3565b5b50905062000420919062000424565b5090565b5b808211156200043f57600081600090555060010162000425565b5090565b6000604051905090565b600080fd5b600080fd5b600080fd5b600080fd5b6000601f19601f8301169050919050565b7f4e487b7100000000000000000000000000000000000000000000000000000000600052604160045260246000fd5b620004ac8262000461565b810181811067ffffffffffffffff82111715620004ce57620004cd62000472565b5b80604052505050565b6000620004e362000443565b9050620004f18282620004a1565b919050565b600067ffffffffffffffff82111562000514576200051362000472565b5b6200051f8262000461565b9050602081019050919050565b60005b838110156200054c5780820151818401526020810190506200052f565b838111156200055c576000848401525b50505050565b6000620005796200057384620004f6565b620004d7565b9050828152602081018484840111156200059857620005976200045c565b5b620005a58482856200052c565b509392505050565b600082601f830112620005c557620005c462000457565b5b8151620005d784826020860162000562565b91505092915050565b6000819050919050565b620005f581620005e0565b81146200060157600080fd5b50565b6000815190506200061581620005ea565b92915050565b60008060008060008060c087890312156200063b576200063a6200044d565b5b600087015167ffffffffffffffff8111156200065c576200065b62000452565b5b6200066a89828a01620005ad565b965050602087015167ffffffffffffffff8111156200068e576200068d62000452565b5b6200069c89828a01620005ad565b9550506040620006af89828a0162000604565b9450506060620006c289828a0162000604565b9350506080620006d589828a0162000604565b92505060a087015167ffffffffffffffff811115620006f957620006f862000452565b5b6200070789828a01620005ad565b9150509295509295509295565b600082825260208201905092915050565b7f4f776e61626c653a2063616c6c6572206973206e6f7420746865206f776e6572600082015250565b60006200075d60208362000714565b91506200076a8262000725565b602082019050919050565b6000602082019050818103600083015262000790816200074e565b9050919050565b7f4e487b7100000000000000000000000000000000000000000000000000000000600052602260045260246000fd5b60006002820490506001821680620007df57607f821691505b60208210811415620007f657620007f562000797565b5b50919050565b61436b806200080c6000396000f3fe6080604052600436106102465760003560e01c806370a0823111610139578063b071401b116100b6578063db4bec441161007a578063db4bec441461083c578063e0a8085314610879578063e985e9c5146108a2578063eddd0d9c146108df578063efbd73f414610908578063f2fde38b1461093157610246565b8063b071401b14610766578063b88d4fde1461078f578063c87b56dd146107b8578063d2cab056146107f5578063d5abeb011461081157610246565b80638da5cb5b116100fd5780638da5cb5b1461069157806394354fd0146106bc57806395d89b41146106e7578063a22cb46514610712578063a45ba8e71461073b57610246565b806370a08231146105c2578063715018a6146105ff5780637cb64759146106165780637ec4a6591461063f578063818668d71461066857610246565b80632eb4a7ab116101c75780635c975abb1161018b5780635c975abb146104d957806362b99ad4146105045780636352211e1461052f5780636caede3d1461056c5780636e02007d1461059757610246565b80632eb4a7ab1461040657806342842e0e146104315780634fdd43cb1461045a57806351830227146104835780635503a0e8146104ae57610246565b80630d730acc1161020e5780630d730acc1461034457806313966db51461036057806316ba10e01461038b57806316c38b3c146103b457806323b872dd146103dd57610246565b806301ffc9a71461024b57806306fdde0314610288578063081812fc146102b3578063095ea7b3146102f05780630b21a83b14610319575b600080fd5b34801561025757600080fd5b50610272600480360381019061026d9190612c80565b61095a565b60405161027f9190612cc8565b60405180910390f35b34801561029457600080fd5b5061029d610a3c565b6040516102aa9190612d7c565b60405180910390f35b3480156102bf57600080fd5b506102da60048036038101906102d59190612dd4565b610ace565b6040516102e79190612e42565b60405180910390f35b3480156102fc57600080fd5b5061031760048036038101906103129190612e89565b610b14565b005b34801561032557600080fd5b5061032e610c2c565b60405161033b9190612ed8565b60405180910390f35b61035e60048036038101906103599190612dd4565b610c32565b005b34801561036c57600080fd5b50610375610d86565b6040516103829190612ed8565b60405180910390f35b34801561039757600080fd5b506103b260048036038101906103ad9190613028565b610d8c565b005b3480156103c057600080fd5b506103db60048036038101906103d6919061309d565b610dae565b005b3480156103e957600080fd5b5061040460048036038101906103ff91906130ca565b610dd3565b005b34801561041257600080fd5b5061041b610e33565b6040516104289190613136565b60405180910390f35b34801561043d57600080fd5b50610458600480360381019061045391906130ca565b610e39565b005b34801561046657600080fd5b50610481600480360381019061047c9190613028565b610e59565b005b34801561048f57600080fd5b50610498610e7b565b6040516104a59190612cc8565b60405180910390f35b3480156104ba57600080fd5b506104c3610e8e565b6040516104d09190612d7c565b60405180910390f35b3480156104e557600080fd5b506104ee610f1c565b6040516104fb9190612cc8565b60405180910390f35b34801561051057600080fd5b50610519610f2f565b6040516105269190612d7c565b60405180910390f35b34801561053b57600080fd5b5061055660048036038101906105519190612dd4565b610fbd565b6040516105639190612e42565b60405180910390f35b34801561057857600080fd5b50610581611044565b60405161058e9190612cc8565b60405180910390f35b3480156105a357600080fd5b506105ac611057565b6040516105b99190612ed8565b60405180910390f35b3480156105ce57600080fd5b506105e960048036038101906105e49190613151565b611061565b6040516105f69190612ed8565b60405180910390f35b34801561060b57600080fd5b50610614611119565b005b34801561062257600080fd5b5061063d600480360381019061063891906131aa565b61112d565b005b34801561064b57600080fd5b5061066660048036038101906106619190613028565b61113f565b005b34801561067457600080fd5b5061068f600480360381019061068a919061309d565b611161565b005b34801561069d57600080fd5b506106a6611186565b6040516106b39190612e42565b60405180910390f35b3480156106c857600080fd5b506106d16111b0565b6040516106de9190612ed8565b60405180910390f35b3480156106f357600080fd5b506106fc6111b6565b6040516107099190612d7c565b60405180910390f35b34801561071e57600080fd5b50610739600480360381019061073491906131d7565b611248565b005b34801561074757600080fd5b5061075061125e565b60405161075d9190612d7c565b60405180910390f35b34801561077257600080fd5b5061078d60048036038101906107889190612dd4565b6112ec565b005b34801561079b57600080fd5b506107b660048036038101906107b191906132b8565b6112fe565b005b3480156107c457600080fd5b506107df60048036038101906107da9190612dd4565b611360565b6040516107ec9190612d7c565b60405180910390f35b61080f600480360381019061080a919061339b565b6114b9565b005b34801561081d57600080fd5b506108266117c8565b6040516108339190612ed8565b60405180910390f35b34801561084857600080fd5b50610863600480360381019061085e9190613151565b6117ce565b6040516108709190612cc8565b60405180910390f35b34801561088557600080fd5b506108a0600480360381019061089b919061309d565b6117ee565b005b3480156108ae57600080fd5b506108c960048036038101906108c491906133fb565b611813565b6040516108d69190612cc8565b60405180910390f35b3480156108eb57600080fd5b5061090660048036038101906109019190612dd4565b6118a7565b005b34801561091457600080fd5b5061092f600480360381019061092a919061343b565b6118b9565b005b34801561093d57600080fd5b5061095860048036038101906109539190613151565b611974565b005b60007f80ac58cd000000000000000000000000000000000000000000000000000000007bffffffffffffffffffffffffffffffffffffffffffffffffffffffff1916827bffffffffffffffffffffffffffffffffffffffffffffffffffffffff19161480610a2557507f5b5e139f000000000000000000000000000000000000000000000000000000007bffffffffffffffffffffffffffffffffffffffffffffffffffffffff1916827bffffffffffffffffffffffffffffffffffffffffffffffffffffffff1916145b80610a355750610a34826119f8565b5b9050919050565b606060008054610a4b906134aa565b80601f0160208091040260200160405190810160405280929190818152602001828054610a77906134aa565b8015610ac45780601f10610a9957610100808354040283529160200191610ac4565b820191906000526020600020905b815481529060010190602001808311610aa757829003601f168201915b5050505050905090565b6000610ad982611a62565b6004600083815260200190815260200160002060009054906101000a900473ffffffffffffffffffffffffffffffffffffffff169050919050565b6000610b1f82610fbd565b90508073ffffffffffffffffffffffffffffffffffffffff168373ffffffffffffffffffffffffffffffffffffffff161415610b90576040517f08c379a0000000000000000000000000000000000000000000000000000000008152600401610b879061354e565b60405180910390fd5b8073ffffffffffffffffffffffffffffffffffffffff16610baf611aad565b73ffffffffffffffffffffffffffffffffffffffff161480610bde5750610bdd81610bd8611aad565b611813565b5b610c1d576040517f08c379a0000000000000000000000000000000000000000000000000000000008152600401610c14906135e0565b60405180910390fd5b610c278383611ab5565b505050565b600d5481565b80600081118015610c4557506010548111155b610c84576040517f08c379a0000000000000000000000000000000000000000000000000000000008152600401610c7b9061364c565b60405180910390fd5b600f5481600d54610c95919061369b565b1115610cd6576040517f08c379a0000000000000000000000000000000000000000000000000000000008152600401610ccd9061373d565b60405180910390fd5b8180600e54610ce5919061375d565b341015610d27576040517f08c379a0000000000000000000000000000000000000000000000000000000008152600401610d1e90613803565b60405180910390fd5b601160009054906101000a900460ff1615610d77576040517f08c379a0000000000000000000000000000000000000000000000000000000008152600401610d6e9061386f565b60405180910390fd5b610d813384611b6e565b505050565b600e5481565b610d94611b8c565b8060099080519060200190610daa929190612b71565b5050565b610db6611b8c565b80601160006101000a81548160ff02191690831515021790555050565b610de4610dde611aad565b82611c0a565b610e23576040517f08c379a0000000000000000000000000000000000000000000000000000000008152600401610e1a90613901565b60405180910390fd5b610e2e838383611c9f565b505050565b600b5481565b610e54838383604051806020016040528060008152506112fe565b505050565b610e61611b8c565b80600a9080519060200190610e77929190612b71565b5050565b601160029054906101000a900460ff1681565b60098054610e9b906134aa565b80601f0160208091040260200160405190810160405280929190818152602001828054610ec7906134aa565b8015610f145780601f10610ee957610100808354040283529160200191610f14565b820191906000526020600020905b815481529060010190602001808311610ef757829003601f168201915b505050505081565b601160009054906101000a900460ff1681565b60088054610f3c906134aa565b80601f0160208091040260200160405190810160405280929190818152602001828054610f68906134aa565b8015610fb55780601f10610f8a57610100808354040283529160200191610fb5565b820191906000526020600020905b815481529060010190602001808311610f9857829003601f168201915b505050505081565b600080610fc983611f99565b9050600073ffffffffffffffffffffffffffffffffffffffff168173ffffffffffffffffffffffffffffffffffffffff16141561103b576040517f08c379a00000000000000000000000000000000000000000000000000000000081526004016110329061396d565b60405180910390fd5b80915050919050565b601160019054906101000a900460ff1681565b6000600d54905090565b60008073ffffffffffffffffffffffffffffffffffffffff168273ffffffffffffffffffffffffffffffffffffffff1614156110d2576040517f08c379a00000000000000000000000000000000000000000000000000000000081526004016110c9906139ff565b60405180910390fd5b600360008373ffffffffffffffffffffffffffffffffffffffff1673ffffffffffffffffffffffffffffffffffffffff168152602001908152602001600020549050919050565b611121611b8c565b61112b6000611fd6565b565b611135611b8c565b80600b8190555050565b611147611b8c565b806008908051906020019061115d929190612b71565b5050565b611169611b8c565b80601160016101000a81548160ff02191690831515021790555050565b6000600660009054906101000a900473ffffffffffffffffffffffffffffffffffffffff16905090565b60105481565b6060600180546111c5906134aa565b80601f01602080910402602001604051908101604052809291908181526020018280546111f1906134aa565b801561123e5780601f106112135761010080835404028352916020019161123e565b820191906000526020600020905b81548152906001019060200180831161122157829003601f168201915b5050505050905090565b61125a611253611aad565b838361209c565b5050565b600a805461126b906134aa565b80601f0160208091040260200160405190810160405280929190818152602001828054611297906134aa565b80156112e45780601f106112b9576101008083540402835291602001916112e4565b820191906000526020600020905b8154815290600101906020018083116112c757829003601f168201915b505050505081565b6112f4611b8c565b8060108190555050565b61130f611309611aad565b83611c0a565b61134e576040517f08c379a000000000000000000000000000000000000000000000000000000000815260040161134590613901565b60405180910390fd5b61135a84848484612209565b50505050565b606061136b82612265565b6113aa576040517f08c379a00000000000000000000000000000000000000000000000000000000081526004016113a190613a91565b60405180910390fd5b60001515601160029054906101000a900460ff161515141561145857600a80546113d3906134aa565b80601f01602080910402602001604051908101604052809291908181526020018280546113ff906134aa565b801561144c5780601f106114215761010080835404028352916020019161144c565b820191906000526020600020905b81548152906001019060200180831161142f57829003601f168201915b505050505090506114b4565b60006114626122a6565b9050600081511161148257604051806020016040528060008152506114b0565b8061148c84612338565b60096040516020016114a093929190613b81565b6040516020818303038152906040525b9150505b919050565b826000811180156114cc57506010548111155b61150b576040517f08c379a00000000000000000000000000000000000000000000000000000000081526004016115029061364c565b60405180910390fd5b600f5481600d5461151c919061369b565b111561155d576040517f08c379a00000000000000000000000000000000000000000000000000000000081526004016115549061373d565b60405180910390fd5b8380600e5461156c919061375d565b3410156115ae576040517f08c379a00000000000000000000000000000000000000000000000000000000081526004016115a590613803565b60405180910390fd5b601160019054906101000a900460ff166115fd576040517f08c379a00000000000000000000000000000000000000000000000000000000081526004016115f490613c24565b60405180910390fd5b600c6000611609611aad565b73ffffffffffffffffffffffffffffffffffffffff1673ffffffffffffffffffffffffffffffffffffffff16815260200190815260200160002060009054906101000a900460ff1615611691576040517f08c379a000000000000000000000000000000000000000000000000000000000815260040161168890613c90565b60405180910390fd5b600061169b611aad565b6040516020016116ab9190613cf8565b604051602081830303815290604052805190602001209050611711858580806020026020016040519081016040528093929190818152602001838360200280828437600081840152601f19601f82011690508083019250505050505050600b5483612410565b611750576040517f08c379a000000000000000000000000000000000000000000000000000000000815260040161174790613d5f565b60405180910390fd5b6001600c600061175e611aad565b73ffffffffffffffffffffffffffffffffffffffff1673ffffffffffffffffffffffffffffffffffffffff16815260200190815260200160002060006101000a81548160ff0219169083151502179055506117c06117ba611aad565b87611b6e565b505050505050565b600f5481565b600c6020528060005260406000206000915054906101000a900460ff1681565b6117f6611b8c565b80601160026101000a81548160ff02191690831515021790555050565b6000600560008473ffffffffffffffffffffffffffffffffffffffff1673ffffffffffffffffffffffffffffffffffffffff16815260200190815260200160002060008373ffffffffffffffffffffffffffffffffffffffff1673ffffffffffffffffffffffffffffffffffffffff16815260200190815260200160002060009054906101000a900460ff16905092915050565b6118af611b8c565b80600e8190555050565b816000811180156118cc57506010548111155b61190b576040517f08c379a00000000000000000000000000000000000000000000000000000000081526004016119029061364c565b60405180910390fd5b600f5481600d5461191c919061369b565b111561195d576040517f08c379a00000000000000000000000000000000000000000000000000000000081526004016119549061373d565b60405180910390fd5b611965611b8c565b61196f8284611b6e565b505050565b61197c611b8c565b600073ffffffffffffffffffffffffffffffffffffffff168173ffffffffffffffffffffffffffffffffffffffff1614156119ec576040517f08c379a00000000000000000000000000000000000000000000000000000000081526004016119e390613df1565b60405180910390fd5b6119f581611fd6565b50565b60007f01ffc9a7000000000000000000000000000000000000000000000000000000007bffffffffffffffffffffffffffffffffffffffffffffffffffffffff1916827bffffffffffffffffffffffffffffffffffffffffffffffffffffffff1916149050919050565b611a6b81612265565b611aaa576040517f08c379a0000000000000000000000000000000000000000000000000000000008152600401611aa19061396d565b60405180910390fd5b50565b600033905090565b816004600083815260200190815260200160002060006101000a81548173ffffffffffffffffffffffffffffffffffffffff021916908373ffffffffffffffffffffffffffffffffffffffff160217905550808273ffffffffffffffffffffffffffffffffffffffff16611b2883610fbd565b73ffffffffffffffffffffffffffffffffffffffff167f8c5be1e5ebec7d5bd14f71427d1e84f3dd0314c0f7b2291e5b200ac8c7c3b92560405160405180910390a45050565b611b88828260405180602001604052806000815250612427565b5050565b611b94611aad565b73ffffffffffffffffffffffffffffffffffffffff16611bb2611186565b73ffffffffffffffffffffffffffffffffffffffff1614611c08576040517f08c379a0000000000000000000000000000000000000000000000000000000008152600401611bff90613e5d565b60405180910390fd5b565b600080611c1683610fbd565b90508073ffffffffffffffffffffffffffffffffffffffff168473ffffffffffffffffffffffffffffffffffffffff161480611c585750611c578185611813565b5b80611c9657508373ffffffffffffffffffffffffffffffffffffffff16611c7e84610ace565b73ffffffffffffffffffffffffffffffffffffffff16145b91505092915050565b8273ffffffffffffffffffffffffffffffffffffffff16611cbf82610fbd565b73ffffffffffffffffffffffffffffffffffffffff1614611d15576040517f08c379a0000000000000000000000000000000000000000000000000000000008152600401611d0c90613eef565b60405180910390fd5b600073ffffffffffffffffffffffffffffffffffffffff168273ffffffffffffffffffffffffffffffffffffffff161415611d85576040517f08c379a0000000000000000000000000000000000000000000000000000000008152600401611d7c90613f81565b60405180910390fd5b611d928383836001612482565b8273ffffffffffffffffffffffffffffffffffffffff16611db282610fbd565b73ffffffffffffffffffffffffffffffffffffffff1614611e08576040517f08c379a0000000000000000000000000000000000000000000000000000000008152600401611dff90613eef565b60405180910390fd5b6004600082815260200190815260200160002060006101000a81549073ffffffffffffffffffffffffffffffffffffffff02191690556001600360008573ffffffffffffffffffffffffffffffffffffffff1673ffffffffffffffffffffffffffffffffffffffff168152602001908152602001600020600082825403925050819055506001600360008473ffffffffffffffffffffffffffffffffffffffff1673ffffffffffffffffffffffffffffffffffffffff16815260200190815260200160002060008282540192505081905550816002600083815260200190815260200160002060006101000a81548173ffffffffffffffffffffffffffffffffffffffff021916908373ffffffffffffffffffffffffffffffffffffffff160217905550808273ffffffffffffffffffffffffffffffffffffffff168473ffffffffffffffffffffffffffffffffffffffff167fddf252ad1be2c89b69c2b068fc378daa952ba7f163c4a11628f55a4df523b3ef60405160405180910390a4611f9483838360016125a8565b505050565b60006002600083815260200190815260200160002060009054906101000a900473ffffffffffffffffffffffffffffffffffffffff169050919050565b6000600660009054906101000a900473ffffffffffffffffffffffffffffffffffffffff16905081600660006101000a81548173ffffffffffffffffffffffffffffffffffffffff021916908373ffffffffffffffffffffffffffffffffffffffff1602179055508173ffffffffffffffffffffffffffffffffffffffff168173ffffffffffffffffffffffffffffffffffffffff167f8be0079c531659141344cd1fd0a4f28419497f9722a3daafe3b4186f6b6457e060405160405180910390a35050565b8173ffffffffffffffffffffffffffffffffffffffff168373ffffffffffffffffffffffffffffffffffffffff16141561210b576040517f08c379a000000000000000000000000000000000000000000000000000000000815260040161210290613fed565b60405180910390fd5b80600560008573ffffffffffffffffffffffffffffffffffffffff1673ffffffffffffffffffffffffffffffffffffffff16815260200190815260200160002060008473ffffffffffffffffffffffffffffffffffffffff1673ffffffffffffffffffffffffffffffffffffffff16815260200190815260200160002060006101000a81548160ff0219169083151502179055508173ffffffffffffffffffffffffffffffffffffffff168373ffffffffffffffffffffffffffffffffffffffff167f17307eab39ab6107e8899845ad3d59bd9653f200f220920489ca2b5937696c31836040516121fc9190612cc8565b60405180910390a3505050565b612214848484611c9f565b612220848484846125ae565b61225f576040517f08c379a00000000000000000000000000000000000000000000000000000000081526004016122569061407f565b60405180910390fd5b50505050565b60008073ffffffffffffffffffffffffffffffffffffffff1661228783611f99565b73ffffffffffffffffffffffffffffffffffffffff1614159050919050565b6060600880546122b5906134aa565b80601f01602080910402602001604051908101604052809291908181526020018280546122e1906134aa565b801561232e5780601f106123035761010080835404028352916020019161232e565b820191906000526020600020905b81548152906001019060200180831161231157829003601f168201915b5050505050905090565b60606000600161234784612745565b01905060008167ffffffffffffffff81111561236657612365612efd565b5b6040519080825280601f01601f1916602001820160405280156123985781602001600182028036833780820191505090505b509050600082602001820190505b600115612405578080600190039150507f3031323334353637383961626364656600000000000000000000000000000000600a86061a8153600a85816123ef576123ee61409f565b5b049450600085141561240057612405565b6123a6565b819350505050919050565b60008261241d8584612898565b1490509392505050565b61243183836128ee565b61243e60008484846125ae565b61247d576040517f08c379a00000000000000000000000000000000000000000000000000000000081526004016124749061407f565b60405180910390fd5b505050565b60018111156125a257600073ffffffffffffffffffffffffffffffffffffffff168473ffffffffffffffffffffffffffffffffffffffff16146125165780600360008673ffffffffffffffffffffffffffffffffffffffff1673ffffffffffffffffffffffffffffffffffffffff168152602001908152602001600020600082825461250e91906140ce565b925050819055505b600073ffffffffffffffffffffffffffffffffffffffff168373ffffffffffffffffffffffffffffffffffffffff16146125a15780600360008573ffffffffffffffffffffffffffffffffffffffff1673ffffffffffffffffffffffffffffffffffffffff1681526020019081526020016000206000828254612599919061369b565b925050819055505b5b50505050565b50505050565b60006125cf8473ffffffffffffffffffffffffffffffffffffffff16612b0c565b15612738578373ffffffffffffffffffffffffffffffffffffffff1663150b7a026125f8611aad565b8786866040518563ffffffff1660e01b815260040161261a9493929190614157565b602060405180830381600087803b15801561263457600080fd5b505af192505050801561266557506040513d601f19601f8201168201806040525081019061266291906141b8565b60015b6126e8573d8060008114612695576040519150601f19603f3d011682016040523d82523d6000602084013e61269a565b606091505b506000815114156126e0576040517f08c379a00000000000000000000000000000000000000000000000000000000081526004016126d79061407f565b60405180910390fd5b805181602001fd5b63150b7a0260e01b7bffffffffffffffffffffffffffffffffffffffffffffffffffffffff1916817bffffffffffffffffffffffffffffffffffffffffffffffffffffffff19161491505061273d565b600190505b949350505050565b600080600090507a184f03e93ff9f4daa797ed6e38ed64bf6a1f01000000000000000083106127a3577a184f03e93ff9f4daa797ed6e38ed64bf6a1f01000000000000000083816127995761279861409f565b5b0492506040810190505b6d04ee2d6d415b85acef810000000083106127e0576d04ee2d6d415b85acef810000000083816127d6576127d561409f565b5b0492506020810190505b662386f26fc10000831061280f57662386f26fc1000083816128055761280461409f565b5b0492506010810190505b6305f5e1008310612838576305f5e100838161282e5761282d61409f565b5b0492506008810190505b612710831061285d5761271083816128535761285261409f565b5b0492506004810190505b6064831061288057606483816128765761287561409f565b5b0492506002810190505b600a831061288f576001810190505b80915050919050565b60008082905060005b84518110156128e3576128ce828683815181106128c1576128c06141e5565b5b6020026020010151612b2f565b915080806128db90614214565b9150506128a1565b508091505092915050565b600073ffffffffffffffffffffffffffffffffffffffff168273ffffffffffffffffffffffffffffffffffffffff16141561295e576040517f08c379a0000000000000000000000000000000000000000000000000000000008152600401612955906142a9565b60405180910390fd5b61296781612265565b156129a7576040517f08c379a000000000000000000000000000000000000000000000000000000000815260040161299e90614315565b60405180910390fd5b6129b5600083836001612482565b6129be81612265565b156129fe576040517f08c379a00000000000000000000000000000000000000000000000000000000081526004016129f590614315565b60405180910390fd5b6001600360008473ffffffffffffffffffffffffffffffffffffffff1673ffffffffffffffffffffffffffffffffffffffff16815260200190815260200160002060008282540192505081905550816002600083815260200190815260200160002060006101000a81548173ffffffffffffffffffffffffffffffffffffffff021916908373ffffffffffffffffffffffffffffffffffffffff160217905550808273ffffffffffffffffffffffffffffffffffffffff16600073ffffffffffffffffffffffffffffffffffffffff167fddf252ad1be2c89b69c2b068fc378daa952ba7f163c4a11628f55a4df523b3ef60405160405180910390a4612b086000838360016125a8565b5050565b6000808273ffffffffffffffffffffffffffffffffffffffff163b119050919050565b6000818310612b4757612b428284612b5a565b612b52565b612b518383612b5a565b5b905092915050565b600082600052816020526040600020905092915050565b828054612b7d906134aa565b90600052602060002090601f016020900481019282612b9f5760008555612be6565b82601f10612bb857805160ff1916838001178555612be6565b82800160010185558215612be6579182015b82811115612be5578251825591602001919060010190612bca565b5b509050612bf39190612bf7565b5090565b5b80821115612c10576000816000905550600101612bf8565b5090565b6000604051905090565b600080fd5b600080fd5b60007fffffffff0000000000000000000000000000000000000000000000000000000082169050919050565b612c5d81612c28565b8114612c6857600080fd5b50565b600081359050612c7a81612c54565b92915050565b600060208284031215612c9657612c95612c1e565b5b6000612ca484828501612c6b565b91505092915050565b60008115159050919050565b612cc281612cad565b82525050565b6000602082019050612cdd6000830184612cb9565b92915050565b600081519050919050565b600082825260208201905092915050565b60005b83811015612d1d578082015181840152602081019050612d02565b83811115612d2c576000848401525b50505050565b6000601f19601f8301169050919050565b6000612d4e82612ce3565b612d588185612cee565b9350612d68818560208601612cff565b612d7181612d32565b840191505092915050565b60006020820190508181036000830152612d968184612d43565b905092915050565b6000819050919050565b612db181612d9e565b8114612dbc57600080fd5b50565b600081359050612dce81612da8565b92915050565b600060208284031215612dea57612de9612c1e565b5b6000612df884828501612dbf565b91505092915050565b600073ffffffffffffffffffffffffffffffffffffffff82169050919050565b6000612e2c82612e01565b9050919050565b612e3c81612e21565b82525050565b6000602082019050612e576000830184612e33565b92915050565b612e6681612e21565b8114612e7157600080fd5b50565b600081359050612e8381612e5d565b92915050565b60008060408385031215612ea057612e9f612c1e565b5b6000612eae85828601612e74565b9250506020612ebf85828601612dbf565b9150509250929050565b612ed281612d9e565b82525050565b6000602082019050612eed6000830184612ec9565b92915050565b600080fd5b600080fd5b7f4e487b7100000000000000000000000000000000000000000000000000000000600052604160045260246000fd5b612f3582612d32565b810181811067ffffffffffffffff82111715612f5457612f53612efd565b5b80604052505050565b6000612f67612c14565b9050612f738282612f2c565b919050565b600067ffffffffffffffff821115612f9357612f92612efd565b5b612f9c82612d32565b9050602081019050919050565b82818337600083830152505050565b6000612fcb612fc684612f78565b612f5d565b905082815260208101848484011115612fe757612fe6612ef8565b5b612ff2848285612fa9565b509392505050565b600082601f83011261300f5761300e612ef3565b5b813561301f848260208601612fb8565b91505092915050565b60006020828403121561303e5761303d612c1e565b5b600082013567ffffffffffffffff81111561305c5761305b612c23565b5b61306884828501612ffa565b91505092915050565b61307a81612cad565b811461308557600080fd5b50565b60008135905061309781613071565b92915050565b6000602082840312156130b3576130b2612c1e565b5b60006130c184828501613088565b91505092915050565b6000806000606084860312156130e3576130e2612c1e565b5b60006130f186828701612e74565b935050602061310286828701612e74565b925050604061311386828701612dbf565b9150509250925092565b6000819050919050565b6131308161311d565b82525050565b600060208201905061314b6000830184613127565b92915050565b60006020828403121561316757613166612c1e565b5b600061317584828501612e74565b91505092915050565b6131878161311d565b811461319257600080fd5b50565b6000813590506131a48161317e565b92915050565b6000602082840312156131c0576131bf612c1e565b5b60006131ce84828501613195565b91505092915050565b600080604083850312156131ee576131ed612c1e565b5b60006131fc85828601612e74565b925050602061320d85828601613088565b9150509250929050565b600067ffffffffffffffff82111561323257613231612efd565b5b61323b82612d32565b9050602081019050919050565b600061325b61325684613217565b612f5d565b90508281526020810184848401111561327757613276612ef8565b5b613282848285612fa9565b509392505050565b600082601f83011261329f5761329e612ef3565b5b81356132af848260208601613248565b91505092915050565b600080600080608085870312156132d2576132d1612c1e565b5b60006132e087828801612e74565b94505060206132f187828801612e74565b935050604061330287828801612dbf565b925050606085013567ffffffffffffffff81111561332357613322612c23565b5b61332f8782880161328a565b91505092959194509250565b600080fd5b600080fd5b60008083601f84011261335b5761335a612ef3565b5b8235905067ffffffffffffffff8111156133785761337761333b565b5b60208301915083602082028301111561339457613393613340565b5b9250929050565b6000806000604084860312156133b4576133b3612c1e565b5b60006133c286828701612dbf565b935050602084013567ffffffffffffffff8111156133e3576133e2612c23565b5b6133ef86828701613345565b92509250509250925092565b6000806040838503121561341257613411612c1e565b5b600061342085828601612e74565b925050602061343185828601612e74565b9150509250929050565b6000806040838503121561345257613451612c1e565b5b600061346085828601612dbf565b925050602061347185828601612e74565b9150509250929050565b7f4e487b7100000000000000000000000000000000000000000000000000000000600052602260045260246000fd5b600060028204905060018216806134c257607f821691505b602082108114156134d6576134d561347b565b5b50919050565b7f4552433732313a20617070726f76616c20746f2063757272656e74206f776e6560008201527f7200000000000000000000000000000000000000000000000000000000000000602082015250565b6000613538602183612cee565b9150613543826134dc565b604082019050919050565b600060208201905081810360008301526135678161352b565b9050919050565b7f4552433732313a20617070726f76652063616c6c6572206973206e6f7420746f60008201527f6b656e206f776e6572206f7220617070726f76656420666f7220616c6c000000602082015250565b60006135ca603d83612cee565b91506135d58261356e565b604082019050919050565b600060208201905081810360008301526135f9816135bd565b9050919050565b7f496e76616c6964206d696e7420616d6f756e7421000000000000000000000000600082015250565b6000613636601483612cee565b915061364182613600565b602082019050919050565b6000602082019050818103600083015261366581613629565b9050919050565b7f4e487b7100000000000000000000000000000000000000000000000000000000600052601160045260246000fd5b60006136a682612d9e565b91506136b183612d9e565b9250827fffffffffffffffffffffffffffffffffffffffffffffffffffffffffffffffff038211156136e6576136e561366c565b5b828201905092915050565b7f4d617820737570706c7920657863656564656421000000000000000000000000600082015250565b6000613727601483612cee565b9150613732826136f1565b602082019050919050565b600060208201905081810360008301526137568161371a565b9050919050565b600061376882612d9e565b915061377383612d9e565b9250817fffffffffffffffffffffffffffffffffffffffffffffffffffffffffffffffff04831182151516156137ac576137ab61366c565b5b828202905092915050565b7f496e73756666696369656e742066756e64732100000000000000000000000000600082015250565b60006137ed601383612cee565b91506137f8826137b7565b602082019050919050565b6000602082019050818103600083015261381c816137e0565b9050919050565b7f54686520636f6e74726163742069732070617573656421000000000000000000600082015250565b6000613859601783612cee565b915061386482613823565b602082019050919050565b600060208201905081810360008301526138888161384c565b9050919050565b7f4552433732313a2063616c6c6572206973206e6f7420746f6b656e206f776e6560008201527f72206f7220617070726f76656400000000000000000000000000000000000000602082015250565b60006138eb602d83612cee565b91506138f68261388f565b604082019050919050565b6000602082019050818103600083015261391a816138de565b9050919050565b7f4552433732313a20696e76616c696420746f6b656e2049440000000000000000600082015250565b6000613957601883612cee565b915061396282613921565b602082019050919050565b600060208201905081810360008301526139868161394a565b9050919050565b7f4552433732313a2061646472657373207a65726f206973206e6f74206120766160008201527f6c6964206f776e65720000000000000000000000000000000000000000000000602082015250565b60006139e9602983612cee565b91506139f48261398d565b604082019050919050565b60006020820190508181036000830152613a18816139dc565b9050919050565b7f4552433732314d657461646174613a2055524920717565727920666f72206e6f60008201527f6e6578697374656e7420746f6b656e0000000000000000000000000000000000602082015250565b6000613a7b602f83612cee565b9150613a8682613a1f565b604082019050919050565b60006020820190508181036000830152613aaa81613a6e565b9050919050565b600081905092915050565b6000613ac782612ce3565b613ad18185613ab1565b9350613ae1818560208601612cff565b80840191505092915050565b60008190508160005260206000209050919050565b60008154613b0f816134aa565b613b198186613ab1565b94506001821660008114613b345760018114613b4557613b78565b60ff19831686528186019350613b78565b613b4e85613aed565b60005b83811015613b7057815481890152600182019150602081019050613b51565b838801955050505b50505092915050565b6000613b8d8286613abc565b9150613b998285613abc565b9150613ba58284613b02565b9150819050949350505050565b7f5468652077686974656c6973742073616c65206973206e6f7420656e61626c6560008201527f6421000000000000000000000000000000000000000000000000000000000000602082015250565b6000613c0e602283612cee565b9150613c1982613bb2565b604082019050919050565b60006020820190508181036000830152613c3d81613c01565b9050919050565b7f4164647265737320616c726561647920636c61696d6564210000000000000000600082015250565b6000613c7a601883612cee565b9150613c8582613c44565b602082019050919050565b60006020820190508181036000830152613ca981613c6d565b9050919050565b60008160601b9050919050565b6000613cc882613cb0565b9050919050565b6000613cda82613cbd565b9050919050565b613cf2613ced82612e21565b613ccf565b82525050565b6000613d048284613ce1565b60148201915081905092915050565b7f496e76616c69642070726f6f6621000000000000000000000000000000000000600082015250565b6000613d49600e83612cee565b9150613d5482613d13565b602082019050919050565b60006020820190508181036000830152613d7881613d3c565b9050919050565b7f4f776e61626c653a206e6577206f776e657220697320746865207a65726f206160008201527f6464726573730000000000000000000000000000000000000000000000000000602082015250565b6000613ddb602683612cee565b9150613de682613d7f565b604082019050919050565b60006020820190508181036000830152613e0a81613dce565b9050919050565b7f4f776e61626c653a2063616c6c6572206973206e6f7420746865206f776e6572600082015250565b6000613e47602083612cee565b9150613e5282613e11565b602082019050919050565b60006020820190508181036000830152613e7681613e3a565b9050919050565b7f4552433732313a207472616e736665722066726f6d20696e636f72726563742060008201527f6f776e6572000000000000000000000000000000000000000000000000000000602082015250565b6000613ed9602583612cee565b9150613ee482613e7d565b604082019050919050565b60006020820190508181036000830152613f0881613ecc565b9050919050565b7f4552433732313a207472616e7366657220746f20746865207a65726f2061646460008201527f7265737300000000000000000000000000000000000000000000000000000000602082015250565b6000613f6b602483612cee565b9150613f7682613f0f565b604082019050919050565b60006020820190508181036000830152613f9a81613f5e565b9050919050565b7f4552433732313a20617070726f766520746f2063616c6c657200000000000000600082015250565b6000613fd7601983612cee565b9150613fe282613fa1565b602082019050919050565b6000602082019050818103600083015261400681613fca565b9050919050565b7f4552433732313a207472616e7366657220746f206e6f6e20455243373231526560008201527f63656976657220696d706c656d656e7465720000000000000000000000000000602082015250565b6000614069603283612cee565b91506140748261400d565b604082019050919050565b600060208201905081810360008301526140988161405c565b9050919050565b7f4e487b7100000000000000000000000000000000000000000000000000000000600052601260045260246000fd5b60006140d982612d9e565b91506140e483612d9e565b9250828210156140f7576140f661366c565b5b828203905092915050565b600081519050919050565b600082825260208201905092915050565b600061412982614102565b614133818561410d565b9350614143818560208601612cff565b61414c81612d32565b840191505092915050565b600060808201905061416c6000830187612e33565b6141796020830186612e33565b6141866040830185612ec9565b8181036060830152614198818461411e565b905095945050505050565b6000815190506141b281612c54565b92915050565b6000602082840312156141ce576141cd612c1e565b5b60006141dc848285016141a3565b91505092915050565b7f4e487b7100000000000000000000000000000000000000000000000000000000600052603260045260246000fd5b600061421f82612d9e565b91507fffffffffffffffffffffffffffffffffffffffffffffffffffffffffffffffff8214156142525761425161366c565b5b600182019050919050565b7f4552433732313a206d696e7420746f20746865207a65726f2061646472657373600082015250565b6000614293602083612cee565b915061429e8261425d565b602082019050919050565b600060208201905081810360008301526142c281614286565b9050919050565b7f4552433732313a20746f6b656e20616c7265616479206d696e74656400000000600082015250565b60006142ff601c83612cee565b915061430a826142c9565b602082019050919050565b6000602082019050818103600083015261432e816142f2565b905091905056fea264697066735822122074daf2de7515a3870a7f7505e3f46596dcc931206d56e6967bef45a99dd1e00764736f6c63430008090033",
  "devdoc": {
    "kind": "dev",
    "methods": {
      "approve(address,uint256)": {
        "details": "See {IERC721-approve}."
      },
      "balanceOf(address)": {
        "details": "See {IERC721-balanceOf}."
      },
      "getApproved(uint256)": {
        "details": "See {IERC721-getApproved}."
      },
      "isApprovedForAll(address,address)": {
        "details": "See {IERC721-isApprovedForAll}."
      },
      "name()": {
        "details": "See {IERC721Metadata-name}."
      },
      "owner()": {
        "details": "Returns the address of the current owner."
      },
      "ownerOf(uint256)": {
        "details": "See {IERC721-ownerOf}."
      },
      "renounceOwnership()": {
        "details": "Leaves the contract without owner. It will not be possible to call `onlyOwner` functions anymore. Can only be called by the current owner. NOTE: Renouncing ownership will leave the contract without an owner, thereby removing any functionality that is only available to the owner."
      },
      "safeTransferFrom(address,address,uint256)": {
        "details": "See {IERC721-safeTransferFrom}."
      },
      "safeTransferFrom(address,address,uint256,bytes)": {
        "details": "See {IERC721-safeTransferFrom}."
      },
      "setApprovalForAll(address,bool)": {
        "details": "See {IERC721-setApprovalForAll}."
      },
      "supportsInterface(bytes4)": {
        "details": "See {IERC165-supportsInterface}."
      },
      "symbol()": {
        "details": "See {IERC721Metadata-symbol}."
      },
      "transferFrom(address,address,uint256)": {
        "details": "See {IERC721-transferFrom}."
      },
      "transferOwnership(address)": {
        "details": "Transfers ownership of the contract to a new account (`newOwner`). Can only be called by the current owner."
      }
    },
    "version": 1
  },
  "userdoc": {
    "events": {
      "NftRequested(uint256,address)": {
        "notice": "Events "
      }
    },
    "kind": "user",
    "methods": {},
    "version": 1
  },
  "storageLayout": {
    "storage": [
      {
        "astId": 192,
        "contract": "contracts/MultiMetaNft.sol:MultiMetaNft",
        "label": "_name",
        "offset": 0,
        "slot": "0",
        "type": "t_string_storage"
      },
      {
        "astId": 194,
        "contract": "contracts/MultiMetaNft.sol:MultiMetaNft",
        "label": "_symbol",
        "offset": 0,
        "slot": "1",
        "type": "t_string_storage"
      },
      {
        "astId": 198,
        "contract": "contracts/MultiMetaNft.sol:MultiMetaNft",
        "label": "_owners",
        "offset": 0,
        "slot": "2",
        "type": "t_mapping(t_uint256,t_address)"
      },
      {
        "astId": 202,
        "contract": "contracts/MultiMetaNft.sol:MultiMetaNft",
        "label": "_balances",
        "offset": 0,
        "slot": "3",
        "type": "t_mapping(t_address,t_uint256)"
      },
      {
        "astId": 206,
        "contract": "contracts/MultiMetaNft.sol:MultiMetaNft",
        "label": "_tokenApprovals",
        "offset": 0,
        "slot": "4",
        "type": "t_mapping(t_uint256,t_address)"
      },
      {
        "astId": 212,
        "contract": "contracts/MultiMetaNft.sol:MultiMetaNft",
        "label": "_operatorApprovals",
        "offset": 0,
        "slot": "5",
        "type": "t_mapping(t_address,t_mapping(t_address,t_bool))"
      },
      {
        "astId": 7,
        "contract": "contracts/MultiMetaNft.sol:MultiMetaNft",
        "label": "_owner",
        "offset": 0,
        "slot": "6",
        "type": "t_address"
      },
      {
        "astId": 123,
        "contract": "contracts/MultiMetaNft.sol:MultiMetaNft",
        "label": "_status",
        "offset": 0,
        "slot": "7",
        "type": "t_uint256"
      },
      {
        "astId": 3230,
        "contract": "contracts/MultiMetaNft.sol:MultiMetaNft",
        "label": "uriPrefix",
        "offset": 0,
        "slot": "8",
        "type": "t_string_storage"
      },
      {
        "astId": 3233,
        "contract": "contracts/MultiMetaNft.sol:MultiMetaNft",
        "label": "uriSuffix",
        "offset": 0,
        "slot": "9",
        "type": "t_string_storage"
      },
      {
        "astId": 3235,
        "contract": "contracts/MultiMetaNft.sol:MultiMetaNft",
        "label": "hiddenMetadataUri",
        "offset": 0,
        "slot": "10",
        "type": "t_string_storage"
      },
      {
        "astId": 3237,
        "contract": "contracts/MultiMetaNft.sol:MultiMetaNft",
        "label": "merkleRoot",
        "offset": 0,
        "slot": "11",
        "type": "t_bytes32"
      },
      {
        "astId": 3241,
        "contract": "contracts/MultiMetaNft.sol:MultiMetaNft",
        "label": "whitelistClaimed",
        "offset": 0,
        "slot": "12",
        "type": "t_mapping(t_address,t_bool)"
      },
      {
        "astId": 3243,
        "contract": "contracts/MultiMetaNft.sol:MultiMetaNft",
        "label": "s_tokenCounter",
        "offset": 0,
        "slot": "13",
        "type": "t_uint256"
      },
      {
        "astId": 3245,
        "contract": "contracts/MultiMetaNft.sol:MultiMetaNft",
        "label": "mintFee",
        "offset": 0,
        "slot": "14",
        "type": "t_uint256"
      },
      {
        "astId": 3247,
        "contract": "contracts/MultiMetaNft.sol:MultiMetaNft",
        "label": "maxSupply",
        "offset": 0,
        "slot": "15",
        "type": "t_uint256"
      },
      {
        "astId": 3249,
        "contract": "contracts/MultiMetaNft.sol:MultiMetaNft",
        "label": "maxMintAmountPerTx",
        "offset": 0,
        "slot": "16",
        "type": "t_uint256"
      },
      {
        "astId": 3252,
        "contract": "contracts/MultiMetaNft.sol:MultiMetaNft",
        "label": "paused",
        "offset": 0,
        "slot": "17",
        "type": "t_bool"
      },
      {
        "astId": 3255,
        "contract": "contracts/MultiMetaNft.sol:MultiMetaNft",
        "label": "whitelistMintEnabled",
        "offset": 1,
        "slot": "17",
        "type": "t_bool"
      },
      {
        "astId": 3258,
        "contract": "contracts/MultiMetaNft.sol:MultiMetaNft",
        "label": "revealed",
        "offset": 2,
        "slot": "17",
        "type": "t_bool"
      }
    ],
    "types": {
      "t_address": {
        "encoding": "inplace",
        "label": "address",
        "numberOfBytes": "20"
      },
      "t_bool": {
        "encoding": "inplace",
        "label": "bool",
        "numberOfBytes": "1"
      },
      "t_bytes32": {
        "encoding": "inplace",
        "label": "bytes32",
        "numberOfBytes": "32"
      },
      "t_mapping(t_address,t_bool)": {
        "encoding": "mapping",
        "key": "t_address",
        "label": "mapping(address => bool)",
        "numberOfBytes": "32",
        "value": "t_bool"
      },
      "t_mapping(t_address,t_mapping(t_address,t_bool))": {
        "encoding": "mapping",
        "key": "t_address",
        "label": "mapping(address => mapping(address => bool))",
        "numberOfBytes": "32",
        "value": "t_mapping(t_address,t_bool)"
      },
      "t_mapping(t_address,t_uint256)": {
        "encoding": "mapping",
        "key": "t_address",
        "label": "mapping(address => uint256)",
        "numberOfBytes": "32",
        "value": "t_uint256"
      },
      "t_mapping(t_uint256,t_address)": {
        "encoding": "mapping",
        "key": "t_uint256",
        "label": "mapping(uint256 => address)",
        "numberOfBytes": "32",
        "value": "t_address"
      },
      "t_string_storage": {
        "encoding": "bytes",
        "label": "string",
        "numberOfBytes": "32"
      },
      "t_uint256": {
        "encoding": "inplace",
        "label": "uint256",
        "numberOfBytes": "32"
      }
    }
  }
}